S02700004F6E2D64656D616E642054726166666963204C6967687420436F6E74726F6C2E73726563B2
S11300000C942A000C9460030C943C000C943C0067
S11300100C943C000C943C000C943C000C943C006C
S11300200C943C000C943C000C943C000C943C005C
S11300300C943C000C943C000C943C000C943C004C
S11300400C943C000C943C000C943C000C943C003C
S11300500C943C0011241FBECFE5D8E0DEBFCDBF19
S113006020E0A0E6B0E001C01D92A836B207E1F797
S11300700E94E4010C94D0030C94000060E081E43D
S11300800E94CD0161E081E40E94CD0162E081E43F
S11300900E94CD0160E082E40E94CD0161E082E42F
S11300A00E94CD0162E082E40E94CD0180E00E94C2
S11300B04E038DEB91E00E945B03089580916300F1
S11300C0813031F120F0823009F481C0089560E07C
S11300D081E40E94D30165E070E080E094E00E9436
S11300E08E0380916100813039F41092610060E0E8
S11300F081E40E94D901089560E081E40E94D9015D
S113010080916300809362008F5F80936300089501
S1130110809162008823F1F0823009F447C0089589
S113012061E081E40E94DF0161E070E080E094E03E
S11301300E948E0380916100813039F41092610035
S113014060E081E40E94D9010895809160008F5F8E
S11301508093600080916000853010F361E081E459
S11301600E94D90110926000809163008093620024
S113017082E080936300089561E081E40E94DF01DE
S113018061E070E080E094E00E948E038091610061
S1130190813039F41092610060E081E40E94D90159
S11301A00895809160008F5F80936000809160006B
S11301B0853010F361E081E40E94D901109260005F
S11301C0809163008093620010926300089562E05E
S11301D081E40E94D30165E070E080E094E00E9435
S11301E08E0362E081E40E94D901809163008093D0
S11301F0620081E08093630008958091640081111E
S113020002C00E945E000895809163008130D9F09D
S113021020F0823009F440C05AC060E081E40E94BA
S1130220D30162E082E40E94D30165E070E080E0E3
S113023094E00E94AF0360E081E40E94D90162E08F
S113024082E40E94D9011092600061E081E40E947E
S1130250D90113C061E081E40E94DF0161E082E41E
S11302600E94DF0161E070E080E094E00E94AF034F
S1130270809160008F5F8093600080916000853082
S113028048F361E081E40E94D90161E082E40E94C4
S1130290D901109260001BC062E081E40E94D30186
S11302A060E082E40E94D30165E070E080E094E0C5
S11302B00E94AF0360E082E40E94D90110926400BE
S11302C0109260001092610010926700089562E03D
S11302D081E40E94D30160E082E40E94D30165E0DE
S11302E070E080E094E00E94AF0362E081E40E9449
S11302F0D90113C061E081E40E94DF0161E082E47E
S11303000E94DF0161E070E080E094E00E94AF03AE
S1130310809160008F5F80936000809160008530E1
S113032048F361E081E40E94D90161E082E40E9423
S1130330D90160E082E40E94D90160E081E40E9476
S1130340D30162E082E40E94D30165E070E080E0C2
S113035094E00E94AF0362E082E40E94D90110920B
S1130360620081E080936300109264001092600048
S1130370809361001092670008958BB78F7B8BBFC9
S113038080916400811105C081E0809364000E9423
S113039004018BB780648BBF089541E00E94E9019A
S11303A0811181E0089541E00E947B02811182E085
S11303B0089540E00E947B02811183E008950E9429
S11303C00D03811184E008950E943E000E94FD0007
S11303D0FDCF683008F083C0823449F118F48134C9
S11303E041F07FC0833409F440C0843409F45AC016
S11303F078C041110DC02AB381E090E002C0880F9B
S1130400991F6A95E2F7809582238ABB80E008955C
S1130410413009F068C02AB381E090E002C0880F3F
S1130420991F6A95E2F7822B8ABB80E008954111F7
S11304300DC027B381E090E002C0880F991F6A9530
S1130440E2F78095822387BB80E00895413009F06C
S11304504CC027B381E090E002C0880F991F6A95D1
S1130460E2F7822B87BB80E0089541110DC024B3CD
S113047081E090E002C0880F991F6A95E2F78095A9
S1130480822384BB80E00895413089F524B381E060
S113049090E002C0880F991F6A95E2F7822B84BB13
S11304A080E0089541110DC021B381E090E002C0C5
S11304B0880F991F6A95E2F78095822381BB80E0BB
S11304C008954130B1F421B381E090E002C0880F77
S11304D0991F6A95E2F7822B81BB80E0089581E041
S11304E0089581E0089581E0089581E0089581E010
S11304F0089581E00895683008F083C0823449F19A
S113050018F4813441F07FC0833409F440C084344A
S113051009F45AC078C041110DC02BB381E090E0BA
S113052002C0880F991F6A95E2F7809582238BBBDE
S113053080E00895413009F068C02BB381E090E079
S113054002C0880F991F6A95E2F7822B8BBB80E06B
S1130550089541110DC028B381E090E002C0880FD6
S1130560991F6A95E2F78095822388BB80E00895FD
S1130570413009F04CC028B381E090E002C0880FFC
S1130580991F6A95E2F7822B88BB80E00895411198
S11305900DC025B381E090E002C0880F991F6A95D1
S11305A0E2F78095822385BB80E00895413089F588
S11305B025B381E090E002C0880F991F6A95E2F7A5
S11305C0822B85BB80E0089541110DC022B381E0E8
S11305D090E002C0880F991F6A95E2F78095822304
S11305E082BB80E008954130B1F422B381E090E011
S11305F002C0880F991F6A95E2F7822B82BB80E0C4
S1130600089582E0089582E0089582E0089582E0EA
S1130610089582E0089582E008956830D8F5823420
S1130620A9F018F4813431F037C08334D9F084341C
S113063029F132C02BB381E090E002C0880F991FEA
S11306406A95E2F782278BBB80E0089528B381E0A6
S113065090E002C0880F991F6A95E2F7822788BB51
S113066080E0089525B381E090E002C0880F991FCF
S11306706A95E2F7822785BB80E0089522B381E082
S113068090E002C0880F991F6A95E2F7822782BB27
S113069080E0089583E0089583E00895811109C0FE
S11306A0789485B7836085BF8BB780648BBF80E007
S11306B0089581E0089590936600809365000895FD
S11306C01F920F920FB60F9211242F933F934F93C3
S11306D05F936F937F938F939F93AF93BF93EF93A6
S11306E0FF9380916700811108C081E080936700C7
S11306F0E0916500F09166000995FF91EF91BF913B
S1130700AF919F918F917F916F915F914F913F91A5
S11307102F910F900FBE0F901F90189513BE2CE0D1
S113072022BF81159440C9F483B7856083BF20E05C
S113073007C008B600FEFDCF88B7816088BF2F5F71
S1130740822F90E0AB01440F551F440F551F8417AF
S1130750950778F313BE80E0089583E0089515BCEF
S11307602CE024BD81159440C9F485B5876085BD0E
S113077020E007C008B606FEFDCF88B7806488BFB6
S11307802F5F822F90E0AB01440F551F440F551F7C
S11307908417950778F315BC80E0089583E00895E5
S10707A0F894FFCFF7
S9030000FC
